{
  "contractName": "Polymarket",
  "abi": [
    {
      "inputs": [
        {
          "internalType": "address",
          "name": "_polyToken",
          "type": "address"
        }
      ],
      "stateMutability": "nonpayable",
      "type": "constructor"
    },
    {
      "anonymous": false,
      "inputs": [
        {
          "indexed": false,
          "internalType": "uint256",
          "name": "id",
          "type": "uint256"
        },
        {
          "indexed": false,
          "internalType": "string",
          "name": "question",
          "type": "string"
        },
        {
          "indexed": false,
          "internalType": "uint256",
          "name": "timestamp",
          "type": "uint256"
        },
        {
          "indexed": false,
          "internalType": "address",
          "name": "createdBy",
          "type": "address"
        },
        {
          "indexed": false,
          "internalType": "string",
          "name": "creatorImageHash",
          "type": "string"
        },
        {
          "indexed": false,
          "internalType": "uint256",
          "name": "totalAmount",
          "type": "uint256"
        },
        {
          "indexed": false,
          "internalType": "uint256",
          "name": "totalYesAmount",
          "type": "uint256"
        },
        {
          "indexed": false,
          "internalType": "uint256",
          "name": "totalNoAmount",
          "type": "uint256"
        }
      ],
      "name": "QuestionCreated",
      "type": "event"
    },
    {
      "inputs": [],
      "name": "owner",
      "outputs": [
        {
          "internalType": "address",
          "name": "",
          "type": "address"
        }
      ],
      "stateMutability": "view",
      "type": "function",
      "constant": true
    },
    {
      "inputs": [],
      "name": "polyToken",
      "outputs": [
        {
          "internalType": "address",
          "name": "",
          "type": "address"
        }
      ],
      "stateMutability": "view",
      "type": "function",
      "constant": true
    },
    {
      "inputs": [
        {
          "internalType": "uint256",
          "name": "",
          "type": "uint256"
        }
      ],
      "name": "questions",
      "outputs": [
        {
          "internalType": "uint256",
          "name": "id",
          "type": "uint256"
        },
        {
          "internalType": "string",
          "name": "question",
          "type": "string"
        },
        {
          "internalType": "uint256",
          "name": "timestamp",
          "type": "uint256"
        },
        {
          "internalType": "uint256",
          "name": "endTimestamp",
          "type": "uint256"
        },
        {
          "internalType": "address",
          "name": "createdBy",
          "type": "address"
        },
        {
          "internalType": "string",
          "name": "creatorImageHash",
          "type": "string"
        },
        {
          "internalType": "uint256",
          "name": "totalAmount",
          "type": "uint256"
        },
        {
          "internalType": "uint256",
          "name": "totalYesAmount",
          "type": "uint256"
        },
        {
          "internalType": "uint256",
          "name": "totalNoAmount",
          "type": "uint256"
        },
        {
          "internalType": "bool",
          "name": "eventCompleted",
          "type": "bool"
        },
        {
          "internalType": "string",
          "name": "description",
          "type": "string"
        },
        {
          "internalType": "string",
          "name": "resolverUrl",
          "type": "string"
        }
      ],
      "stateMutability": "view",
      "type": "function",
      "constant": true
    },
    {
      "inputs": [],
      "name": "totalQuestions",
      "outputs": [
        {
          "internalType": "uint256",
          "name": "",
          "type": "uint256"
        }
      ],
      "stateMutability": "view",
      "type": "function",
      "constant": true
    },
    {
      "inputs": [
        {
          "internalType": "uint256",
          "name": "",
          "type": "uint256"
        }
      ],
      "name": "winningAddresses",
      "outputs": [
        {
          "internalType": "address",
          "name": "",
          "type": "address"
        }
      ],
      "stateMutability": "view",
      "type": "function",
      "constant": true
    },
    {
      "inputs": [
        {
          "internalType": "address",
          "name": "",
          "type": "address"
        }
      ],
      "name": "winningAmount",
      "outputs": [
        {
          "internalType": "uint256",
          "name": "",
          "type": "uint256"
        }
      ],
      "stateMutability": "view",
      "type": "function",
      "constant": true
    },
    {
      "inputs": [
        {
          "internalType": "string",
          "name": "_question",
          "type": "string"
        },
        {
          "internalType": "string",
          "name": "_creatorImageHash",
          "type": "string"
        },
        {
          "internalType": "string",
          "name": "_description",
          "type": "string"
        },
        {
          "internalType": "string",
          "name": "_resolverUrl",
          "type": "string"
        },
        {
          "internalType": "uint256",
          "name": "_endTimestamp",
          "type": "uint256"
        }
      ],
      "name": "createQuestion",
      "outputs": [],
      "stateMutability": "nonpayable",
      "type": "function"
    },
    {
      "inputs": [
        {
          "internalType": "uint256",
          "name": "_questionId",
          "type": "uint256"
        },
        {
          "internalType": "uint256",
          "name": "_value",
          "type": "uint256"
        }
      ],
      "name": "addYesBet",
      "outputs": [],
      "stateMutability": "payable",
      "type": "function",
      "payable": true
    },
    {
      "inputs": [
        {
          "internalType": "uint256",
          "name": "_questionId",
          "type": "uint256"
        },
        {
          "internalType": "uint256",
          "name": "_value",
          "type": "uint256"
        }
      ],
      "name": "addNoBet",
      "outputs": [],
      "stateMutability": "payable",
      "type": "function",
      "payable": true
    },
    {
      "inputs": [
        {
          "internalType": "uint256",
          "name": "_questionId",
          "type": "uint256"
        }
      ],
      "name": "getGraphData",
      "outputs": [
        {
          "components": [
            {
              "internalType": "address",
              "name": "user",
              "type": "address"
            },
            {
              "internalType": "uint256",
              "name": "amount",
              "type": "uint256"
            },
            {
              "internalType": "uint256",
              "name": "timestamp",
              "type": "uint256"
            }
          ],
          "internalType": "struct Polymarket.AmountAdded[]",
          "name": "",
          "type": "tuple[]"
        },
        {
          "components": [
            {
              "internalType": "address",
              "name": "user",
              "type": "address"
            },
            {
              "internalType": "uint256",
              "name": "amount",
              "type": "uint256"
            },
            {
              "internalType": "uint256",
              "name": "timestamp",
              "type": "uint256"
            }
          ],
          "internalType": "struct Polymarket.AmountAdded[]",
          "name": "",
          "type": "tuple[]"
        }
      ],
      "stateMutability": "view",
      "type": "function",
      "constant": true
    },
    {
      "inputs": [
        {
          "internalType": "uint256",
          "name": "_questionId",
          "type": "uint256"
        },
        {
          "internalType": "bool",
          "name": "eventOutcome",
          "type": "bool"
        }
      ],
      "name": "distributeWinningAmount",
      "outputs": [],
      "stateMutability": "payable",
      "type": "function",
      "payable": true
    },
    {
      "inputs": [],
      "name": "isAdmin",
      "outputs": [
        {
          "internalType": "bool",
          "name": "",
          "type": "bool"
        }
      ],
      "stateMutability": "view",
      "type": "function",
      "constant": true
    }
  ],
  "bytecode": "0x60806040525f600255348015610013575f80fd5b5060405161244a38038061244a83398181016040528101906100359190610118565b335f806101000a81548173ffffffffffffffffffffffffffffffffffffffff021916908373ffffffffffffffffffffffffffffffffffffffff1602179055508060015f6101000a81548173ffffffffffffffffffffffffffffffffffffffff021916908373ffffffffffffffffffffffffffffffffffffffff16021790555050610143565b5f80fd5b5f73ffffffffffffffffffffffffffffffffffffffff82169050919050565b5f6100e7826100be565b9050919050565b6100f7816100dd565b8114610101575f80fd5b50565b5f81519050610112816100ee565b92915050565b5f6020828403121561012d5761012c6100ba565b5b5f61013a84828501610104565b91505092915050565b6122fa806101505f395ff3fe6080604052600436106100a6575f3560e01c8063b6db75a011610063578063b6db75a0146101c6578063b78d6c1d146101f0578063bea5b9141461022c578063bf01fe0014610256578063da6b4db814610272578063eb3f75e2146102ae576100a6565b806314dd5762146100aa57806319a1cafe146100e757806331b1b9781461010f5780636faa22a514610156578063724ba40b146101805780638da5cb5b1461019c575b5f80fd5b3480156100b5575f80fd5b506100d060048036038101906100cb919061159e565b6102ca565b6040516100de9291906116ff565b60405180910390f35b3480156100f2575f80fd5b5061010d60048036038101906101089190611870565b61046f565b005b34801561011a575f80fd5b506101356004803603810190610130919061159e565b61063a565b60405161014d9c9b9a999897969594939291906119ef565b60405180910390f35b348015610161575f80fd5b5061016a6108d9565b6040516101779190611ac3565b60405180910390f35b61019a60048036038101906101959190611b06565b6108fe565b005b3480156101a7575f80fd5b506101b0611074565b6040516101bd9190611ac3565b60405180910390f35b3480156101d1575f80fd5b506101da611097565b6040516101e79190611b44565b60405180910390f35b3480156101fb575f80fd5b506102166004803603810190610211919061159e565b6110fb565b6040516102239190611ac3565b60405180910390f35b348015610237575f80fd5b50610240611136565b60405161024d9190611b5d565b60405180910390f35b610270600480360381019061026b9190611b76565b61113c565b005b34801561027d575f80fd5b5061029860048036038101906102939190611bde565b611324565b6040516102a59190611b5d565b60405180910390f35b6102c860048036038101906102c39190611b76565b611339565b005b6060805f60035f8581526020019081526020015f209050806006018160070181805480602002602001604051908101604052809291908181526020015f905b828210156103a1578382905f5260205f2090600302016040518060600160405290815f82015f9054906101000a900473ffffffffffffffffffffffffffffffffffffffff1673ffffffffffffffffffffffffffffffffffffffff1673ffffffffffffffffffffffffffffffffffffffff1681526020016001820154815260200160028201548152505081526020019060010190610309565b50505050915080805480602002602001604051908101604052809291908181526020015f905b8282101561045f578382905f5260205f2090600302016040518060600160405290815f82015f9054906101000a900473ffffffffffffffffffffffffffffffffffffffff1673ffffffffffffffffffffffffffffffffffffffff1673ffffffffffffffffffffffffffffffffffffffff16815260200160018201548152602001600282015481525050815260200190600101906103c7565b5050505090509250925050915091565b5f8054906101000a900473ffffffffffffffffffffffffffffffffffffffff1673ffffffffffffffffffffffffffffffffffffffff163373ffffffffffffffffffffffffffffffffffffffff16146104fc576040517f08c379a00000000000000000000000000000000000000000000000000000000081526004016104f390611c53565b60405180910390fd5b5f4290505f60035f60025481526020019081526020015f20905060025f81548092919061052890611c9e565b91905055815f0181905550868160010190816105449190611edf565b5081816002018190555033816004015f6101000a81548173ffffffffffffffffffffffffffffffffffffffff021916908373ffffffffffffffffffffffffffffffffffffffff160217905550858160050190816105a19190611edf565b505f81600801819055505f81600901819055505f81600a01819055508481600c0190816105ce9190611edf565b508381600d0190816105e09190611edf565b508281600301819055507fd8960286cb5486e9a27d200d805d06e2eeda2fe2bd67967e36b466ecd440ac996002548884338a5f805f604051610629989796959493929190611fe7565b60405180910390a150505050505050565b6003602052805f5260405f205f91509050805f01549080600101805461065f90611d12565b80601f016020809104026020016040519081016040528092919081815260200182805461068b90611d12565b80156106d65780601f106106ad576101008083540402835291602001916106d6565b820191905f5260205f20905b8154815290600101906020018083116106b957829003601f168201915b505050505090806002015490806003015490806004015f9054906101000a900473ffffffffffffffffffffffffffffffffffffffff169080600501805461071c90611d12565b80601f016020809104026020016040519081016040528092919081815260200182805461074890611d12565b80156107935780601f1061076a57610100808354040283529160200191610793565b820191905f5260205f20905b81548152906001019060200180831161077657829003601f168201915b50505050509080600801549080600901549080600a01549080600b015f9054906101000a900460ff169080600c0180546107cc90611d12565b80601f01602080910402602001604051908101604052809291908181526020018280546107f890611d12565b80156108435780601f1061081a57610100808354040283529160200191610843565b820191905f5260205f20905b81548152906001019060200180831161082657829003601f168201915b50505050509080600d01805461085890611d12565b80601f016020809104026020016040519081016040528092919081815260200182805461088490611d12565b80156108cf5780601f106108a6576101008083540402835291602001916108cf565b820191905f5260205f20905b8154815290600101906020018083116108b257829003601f168201915b505050505090508c565b60015f9054906101000a900473ffffffffffffffffffffffffffffffffffffffff1681565b5f8054906101000a900473ffffffffffffffffffffffffffffffffffffffff1673ffffffffffffffffffffffffffffffffffffffff163373ffffffffffffffffffffffffffffffffffffffff161461098b576040517f08c379a000000000000000000000000000000000000000000000000000000000815260040161098290611c53565b60405180910390fd5b5f60035f8481526020019081526020015f2090508115610cfe575f5b8160060180549050811015610b74575f82600901548360060183815481106109d2576109d1612071565b5b905f5260205f2090600302016001015484600a01546109f1919061209e565b6109fb919061210c565b9050826006018281548110610a1357610a12612071565b5b905f5260205f2090600302016001015481610a2e919061213c565b60045f856006018581548110610a4757610a46612071565b5b905f5260205f2090600302015f015f9054906101000a900473ffffffffffffffffffffffffffffffffffffffff1673ffffffffffffffffffffffffffffffffffffffff1673ffffffffffffffffffffffffffffffffffffffff1681526020019081526020015f205f828254610abc919061213c565b925050819055506005836006018381548110610adb57610ada612071565b5b905f5260205f2090600302015f015f9054906101000a900473ffffffffffffffffffffffffffffffffffffffff16908060018154018082558091505060019003905f5260205f20015f9091909190916101000a81548173ffffffffffffffffffffffffffffffffffffffff021916908373ffffffffffffffffffffffffffffffffffffffff1602179055505080806001019150506109a7565b505f5b600580549050811015610ceb575f60058281548110610b9957610b98612071565b5b905f5260205f20015f9054906101000a900473ffffffffffffffffffffffffffffffffffffffff16905060015f9054906101000a900473ffffffffffffffffffffffffffffffffffffffff1673ffffffffffffffffffffffffffffffffffffffff1663a9059cbb8260045f8573ffffffffffffffffffffffffffffffffffffffff1673ffffffffffffffffffffffffffffffffffffffff1681526020019081526020015f20546040518363ffffffff1660e01b8152600401610c5c9291906121c1565b6020604051808303815f875af1158015610c78573d5f803e3d5ffd5b505050506040513d601f19601f82011682018060405250810190610c9c91906121fc565b5060045f8273ffffffffffffffffffffffffffffffffffffffff1673ffffffffffffffffffffffffffffffffffffffff1681526020019081526020015f205f9055508080600101915050610b77565b5060055f610cf99190611521565b611053565b5f5b8160070180549050811015610ecd575f82600a0154836007018381548110610d2b57610d2a612071565b5b905f5260205f209060030201600101548460090154610d4a919061209e565b610d54919061210c565b9050826007018281548110610d6c57610d6b612071565b5b905f5260205f2090600302016001015481610d87919061213c565b60045f856007018581548110610da057610d9f612071565b5b905f5260205f2090600302015f015f9054906101000a900473ffffffffffffffffffffffffffffffffffffffff1673ffffffffffffffffffffffffffffffffffffffff1673ffffffffffffffffffffffffffffffffffffffff1681526020019081526020015f205f828254610e15919061213c565b925050819055506005836007018381548110610e3457610e33612071565b5b905f5260205f2090600302015f015f9054906101000a900473ffffffffffffffffffffffffffffffffffffffff16908060018154018082558091505060019003905f5260205f20015f9091909190916101000a81548173ffffffffffffffffffffffffffffffffffffffff021916908373ffffffffffffffffffffffffffffffffffffffff160217905550508080600101915050610d00565b505f5b600580549050811015611044575f60058281548110610ef257610ef1612071565b5b905f5260205f20015f9054906101000a900473ffffffffffffffffffffffffffffffffffffffff16905060015f9054906101000a900473ffffffffffffffffffffffffffffffffffffffff1673ffffffffffffffffffffffffffffffffffffffff1663a9059cbb8260045f8573ffffffffffffffffffffffffffffffffffffffff1673ffffffffffffffffffffffffffffffffffffffff1681526020019081526020015f20546040518363ffffffff1660e01b8152600401610fb59291906121c1565b6020604051808303815f875af1158015610fd1573d5f803e3d5ffd5b505050506040513d601f19601f82011682018060405250810190610ff591906121fc565b5060045f8273ffffffffffffffffffffffffffffffffffffffff1673ffffffffffffffffffffffffffffffffffffffff1681526020019081526020015f205f9055508080600101915050610ed0565b5060055f6110529190611521565b5b600181600b015f6101000a81548160ff021916908315150217905550505050565b5f8054906101000a900473ffffffffffffffffffffffffffffffffffffffff1681565b5f805f9054906101000a900473ffffffffffffffffffffffffffffffffffffffff1673ffffffffffffffffffffffffffffffffffffffff163373ffffffffffffffffffffffffffffffffffffffff16036110f457600190506110f8565b5f90505b90565b6005818154811061110a575f80fd5b905f5260205f20015f915054906101000a900473ffffffffffffffffffffffffffffffffffffffff1681565b60025481565b5f821461117e576040517f08c379a000000000000000000000000000000000000000000000000000000000815260040161117590612271565b60405180910390fd5b5f60035f8481526020019081526020015f20905060015f9054906101000a900473ffffffffffffffffffffffffffffffffffffffff1673ffffffffffffffffffffffffffffffffffffffff166323b872dd3330856040518463ffffffff1660e01b81526004016111f09392919061228f565b6020604051808303815f875af115801561120c573d5f803e3d5ffd5b505050506040513d601f19601f8201168201806040525081019061123091906121fc565b505f60405180606001604052803373ffffffffffffffffffffffffffffffffffffffff1681526020018481526020014281525090508282600a015f828254611278919061213c565b9250508190555082826008015f828254611292919061213c565b925050819055508160070181908060018154018082558091505060019003905f5260205f2090600302015f909190919091505f820151815f015f6101000a81548173ffffffffffffffffffffffffffffffffffffffff021916908373ffffffffffffffffffffffffffffffffffffffff1602179055506020820151816001015560408201518160020155505050505050565b6004602052805f5260405f205f915090505481565b5f821461137b576040517f08c379a000000000000000000000000000000000000000000000000000000000815260040161137290612271565b60405180910390fd5b5f60035f8481526020019081526020015f20905060015f9054906101000a900473ffffffffffffffffffffffffffffffffffffffff1673ffffffffffffffffffffffffffffffffffffffff166323b872dd3330856040518463ffffffff1660e01b81526004016113ed9392919061228f565b6020604051808303815f875af1158015611409573d5f803e3d5ffd5b505050506040513d601f19601f8201168201806040525081019061142d91906121fc565b505f60405180606001604052803373ffffffffffffffffffffffffffffffffffffffff16815260200184815260200142815250905082826009015f828254611475919061213c565b9250508190555082826008015f82825461148f919061213c565b925050819055508160060181908060018154018082558091505060019003905f5260205f2090600302015f909190919091505f820151815f015f6101000a81548173ffffffffffffffffffffffffffffffffffffffff021916908373ffffffffffffffffffffffffffffffffffffffff1602179055506020820151816001015560408201518160020155505050505050565b5080545f8255905f5260205f209081019061153c919061153f565b50565b5b80821115611556575f815f905550600101611540565b5090565b5f604051905090565b5f80fd5b5f80fd5b5f819050919050565b61157d8161156b565b8114611587575f80fd5b50565b5f8135905061159881611574565b92915050565b5f602082840312156115b3576115b2611563565b5b5f6115c08482850161158a565b91505092915050565b5f81519050919050565b5f82825260208201905092915050565b5f819050602082019050919050565b5f73ffffffffffffffffffffffffffffffffffffffff82169050919050565b5f61161b826115f2565b9050919050565b61162b81611611565b82525050565b61163a8161156b565b82525050565b606082015f8201516116545f850182611622565b5060208201516116676020850182611631565b50604082015161167a6040850182611631565b50505050565b5f61168b8383611640565b60608301905092915050565b5f602082019050919050565b5f6116ad826115c9565b6116b781856115d3565b93506116c2836115e3565b805f5b838110156116f25781516116d98882611680565b97506116e483611697565b9250506001810190506116c5565b5085935050505092915050565b5f6040820190508181035f83015261171781856116a3565b9050818103602083015261172b81846116a3565b90509392505050565b5f80fd5b5f80fd5b5f601f19601f8301169050919050565b7f4e487b71000000000000000000000000000000000000000000000000000000005f52604160045260245ffd5b6117828261173c565b810181811067ffffffffffffffff821117156117a1576117a061174c565b5b80604052505050565b5f6117b361155a565b90506117bf8282611779565b919050565b5f67ffffffffffffffff8211156117de576117dd61174c565b5b6117e78261173c565b9050602081019050919050565b828183375f83830152505050565b5f61181461180f846117c4565b6117aa565b9050828152602081018484840111156118305761182f611738565b5b61183b8482856117f4565b509392505050565b5f82601f83011261185757611856611734565b5b8135611867848260208601611802565b91505092915050565b5f805f805f60a0868803121561188957611888611563565b5b5f86013567ffffffffffffffff8111156118a6576118a5611567565b5b6118b288828901611843565b955050602086013567ffffffffffffffff8111156118d3576118d2611567565b5b6118df88828901611843565b945050604086013567ffffffffffffffff811115611900576118ff611567565b5b61190c88828901611843565b935050606086013567ffffffffffffffff81111561192d5761192c611567565b5b61193988828901611843565b925050608061194a8882890161158a565b9150509295509295909350565b6119608161156b565b82525050565b5f81519050919050565b5f82825260208201905092915050565b8281835e5f83830152505050565b5f61199882611966565b6119a28185611970565b93506119b2818560208601611980565b6119bb8161173c565b840191505092915050565b6119cf81611611565b82525050565b5f8115159050919050565b6119e9816119d5565b82525050565b5f61018082019050611a035f83018f611957565b8181036020830152611a15818e61198e565b9050611a24604083018d611957565b611a31606083018c611957565b611a3e608083018b6119c6565b81810360a0830152611a50818a61198e565b9050611a5f60c0830189611957565b611a6c60e0830188611957565b611a7a610100830187611957565b611a886101208301866119e0565b818103610140830152611a9b818561198e565b9050818103610160830152611ab0818461198e565b90509d9c50505050505050505050505050565b5f602082019050611ad65f8301846119c6565b92915050565b611ae5816119d5565b8114611aef575f80fd5b50565b5f81359050611b0081611adc565b92915050565b5f8060408385031215611b1c57611b1b611563565b5b5f611b298582860161158a565b9250506020611b3a85828601611af2565b9150509250929050565b5f602082019050611b575f8301846119e0565b92915050565b5f602082019050611b705f830184611957565b92915050565b5f8060408385031215611b8c57611b8b611563565b5b5f611b998582860161158a565b9250506020611baa8582860161158a565b9150509250929050565b611bbd81611611565b8114611bc7575f80fd5b50565b5f81359050611bd881611bb4565b92915050565b5f60208284031215611bf357611bf2611563565b5b5f611c0084828501611bca565b91505092915050565b7f556e617574686f72697a656400000000000000000000000000000000000000005f82015250565b5f611c3d600c83611970565b9150611c4882611c09565b602082019050919050565b5f6020820190508181035f830152611c6a81611c31565b9050919050565b7f4e487b71000000000000000000000000000000000000000000000000000000005f52601160045260245ffd5b5f611ca88261156b565b91507fffffffffffffffffffffffffffffffffffffffffffffffffffffffffffffffff8203611cda57611cd9611c71565b5b600182019050919050565b7f4e487b71000000000000000000000000000000000000000000000000000000005f52602260045260245ffd5b5f6002820490506001821680611d2957607f821691505b602082108103611d3c57611d3b611ce5565b5b50919050565b5f819050815f5260205f209050919050565b5f6020601f8301049050919050565b5f82821b905092915050565b5f60088302611d9e7fffffffffffffffffffffffffffffffffffffffffffffffffffffffffffffffff82611d63565b611da88683611d63565b95508019841693508086168417925050509392505050565b5f819050919050565b5f611de3611dde611dd98461156b565b611dc0565b61156b565b9050919050565b5f819050919050565b611dfc83611dc9565b611e10611e0882611dea565b848454611d6f565b825550505050565b5f90565b611e24611e18565b611e2f818484611df3565b505050565b5b81811015611e5257611e475f82611e1c565b600181019050611e35565b5050565b601f821115611e9757611e6881611d42565b611e7184611d54565b81016020851015611e80578190505b611e94611e8c85611d54565b830182611e34565b50505b505050565b5f82821c905092915050565b5f611eb75f1984600802611e9c565b1980831691505092915050565b5f611ecf8383611ea8565b9150826002028217905092915050565b611ee882611966565b67ffffffffffffffff811115611f0157611f0061174c565b5b611f0b8254611d12565b611f16828285611e56565b5f60209050601f831160018114611f47575f8415611f35578287015190505b611f3f8582611ec4565b865550611fa6565b601f198416611f5586611d42565b5f5b82811015611f7c57848901518255600182019150602085019450602081019050611f57565b86831015611f995784890151611f95601f891682611ea8565b8355505b6001600288020188555050505b505050505050565b5f819050919050565b5f611fd1611fcc611fc784611fae565b611dc0565b61156b565b9050919050565b611fe181611fb7565b82525050565b5f61010082019050611ffb5f83018b611957565b818103602083015261200d818a61198e565b905061201c6040830189611957565b61202960608301886119c6565b818103608083015261203b818761198e565b905061204a60a0830186611fd8565b61205760c0830185611fd8565b61206460e0830184611fd8565b9998505050505050505050565b7f4e487b71000000000000000000000000000000000000000000000000000000005f52603260045260245ffd5b5f6120a88261156b565b91506120b38361156b565b92508282026120c18161156b565b915082820484148315176120d8576120d7611c71565b5b5092915050565b7f4e487b71000000000000000000000000000000000000000000000000000000005f52601260045260245ffd5b5f6121168261156b565b91506121218361156b565b925082612131576121306120df565b5b828204905092915050565b5f6121468261156b565b91506121518361156b565b925082820190508082111561216957612168611c71565b5b92915050565b5f61218961218461217f846115f2565b611dc0565b6115f2565b9050919050565b5f61219a8261216f565b9050919050565b5f6121ab82612190565b9050919050565b6121bb816121a1565b82525050565b5f6040820190506121d45f8301856121b2565b6121e16020830184611957565b9392505050565b5f815190506121f681611adc565b92915050565b5f6020828403121561221157612210611563565b5b5f61221e848285016121e8565b91505092915050565b7f5175657374696f6e2049442063616e6e6f74206265206e756c6c0000000000005f82015250565b5f61225b601a83611970565b915061226682612227565b602082019050919050565b5f6020820190508181035f8301526122888161224f565b9050919050565b5f6060820190506122a25f8301866119c6565b6122af60208301856119c6565b6122bc6040830184611957565b94935050505056fea26469706673582212200b6d21659853a79f69cc71954890706dd9c966935bd2406255e511eec7738a1f64736f6c634300081a0033",
  "immutableReferences": {},
  "source": "// SPDX-License-Identifier: MIT\npragma solidity ^0.8.6;\nimport \"@openzeppelin/contracts/token/ERC20/ERC20.sol\";\n\ncontract Polymarket {\n    address public owner;\n    address public polyToken;\n\n    uint256 public totalQuestions = 0;\n\n    constructor(address _polyToken) {\n        owner = msg.sender;\n        polyToken = _polyToken;\n    }\n\n    mapping(uint256 => Questions) public questions;\n\n    struct Questions {\n        uint256 id;\n        string question;\n        uint256 timestamp;\n        uint256 endTimestamp;\n        address createdBy;\n        string creatorImageHash;\n        AmountAdded[] yesCount;\n        AmountAdded[] noCount;\n        uint256 totalAmount;\n        uint256 totalYesAmount;\n        uint256 totalNoAmount;\n        bool eventCompleted;\n        string description;\n        string resolverUrl;\n    }\n\n    struct AmountAdded {\n        address user;\n        uint256 amount;\n        uint256 timestamp;\n    }\n\n    mapping(address => uint256) public winningAmount;\n    address[] public winningAddresses;\n\n    event QuestionCreated(\n        uint256 id,\n        string question,\n        uint256 timestamp,\n        address createdBy,\n        string creatorImageHash,\n        uint256 totalAmount,\n        uint256 totalYesAmount,\n        uint256 totalNoAmount\n    );\n\n    function createQuestion(\n        string memory _question,\n        string memory _creatorImageHash,\n        string memory _description,\n        string memory _resolverUrl,\n        uint256 _endTimestamp\n    ) public {\n        require(msg.sender == owner, \"Unauthorized\");\n\n        uint256 timestamp = block.timestamp;\n\n        Questions storage question = questions[totalQuestions];\n\n        question.id = totalQuestions++;\n        question.question = _question;\n        question.timestamp = timestamp;\n        question.createdBy = msg.sender;\n        question.creatorImageHash = _creatorImageHash;\n        question.totalAmount = 0;\n        question.totalYesAmount = 0;\n        question.totalNoAmount = 0;\n        question.description = _description;\n        question.resolverUrl = _resolverUrl;\n        question.endTimestamp = _endTimestamp;\n\n        emit QuestionCreated(\n            totalQuestions,\n            _question,\n            timestamp,\n            msg.sender,\n            _creatorImageHash,\n            0,\n            0,\n            0\n        );\n    }\n\n    function addYesBet(uint256 _questionId, uint256 _value) public payable {\n        require(_questionId == 0, \"Question ID cannot be null\");\n        Questions storage question = questions[_questionId];\n        ERC20(polyToken).transferFrom(msg.sender, address(this), _value);\n        AmountAdded memory amountAdded = AmountAdded(\n            msg.sender,\n            _value,\n            block.timestamp\n        );\n\n        question.totalYesAmount += _value;\n        question.totalAmount += _value;\n        question.yesCount.push(amountAdded);\n    }\n\n    function addNoBet(uint256 _questionId, uint256 _value) public payable {\n        require(_questionId == 0, \"Question ID cannot be null\");\n        Questions storage question = questions[_questionId];\n        ERC20(polyToken).transferFrom(msg.sender, address(this), _value);\n        AmountAdded memory amountAdded = AmountAdded(\n            msg.sender,\n            _value,\n            block.timestamp\n        );\n\n        question.totalNoAmount += _value;\n        question.totalAmount += _value;\n        question.noCount.push(amountAdded);\n    }\n\n    function getGraphData(uint256 _questionId)\n        public\n        view\n        returns (AmountAdded[] memory, AmountAdded[] memory)\n    {\n        Questions storage question = questions[_questionId];\n        return (question.yesCount, question.noCount);\n    }\n\n    function distributeWinningAmount(uint256 _questionId, bool eventOutcome)\n        public\n        payable\n    {\n        require(msg.sender == owner, \"Unauthorized\");\n\n        Questions storage question = questions[_questionId];\n        if (eventOutcome) {\n            for (uint256 i = 0; i < question.yesCount.length; i++) {\n                uint256 amount = (question.totalNoAmount *\n                    question.yesCount[i].amount) / question.totalYesAmount;\n                winningAmount[question.yesCount[i].user] += (amount +\n                    question.yesCount[i].amount);\n                winningAddresses.push(question.yesCount[i].user);\n            }\n\n            for (uint256 i = 0; i < winningAddresses.length; i++) {\n                address payable _address = payable(winningAddresses[i]);\n                ERC20(polyToken).transfer(_address, winningAmount[_address]);\n                delete winningAmount[_address];\n            }\n            delete winningAddresses;\n        } else {\n            for (uint256 i = 0; i < question.noCount.length; i++) {\n                uint256 amount = (question.totalYesAmount *\n                    question.noCount[i].amount) / question.totalNoAmount;\n                winningAmount[question.noCount[i].user] += (amount +\n                    question.noCount[i].amount);\n                winningAddresses.push(question.noCount[i].user);\n            }\n\n            for (uint256 i = 0; i < winningAddresses.length; i++) {\n                address payable _address = payable(winningAddresses[i]);\n                ERC20(polyToken).transfer(_address, winningAmount[_address]);\n                delete winningAmount[_address];\n            }\n            delete winningAddresses;\n        }\n        question.eventCompleted = true;\n    }\n\n    function isAdmin() public view returns (bool) {\n        if (msg.sender == owner) return true;\n        else return false;\n    }\n}\n",
  "sourcePath": "/Applications/Workspace/Product/polymarket_servies_sample/Polymarket-clone/contracts/Polymarket.sol",
  "compiler": {
    "name": "solc",
    "version": "0.8.26+commit.8a97fa7a.Emscripten.clang"
  },
  "schemaVersion": "3.4.16",
  "updatedAt": "2024-08-19T14:16:39.843Z",
  "networkType": "ethereum",
  "devdoc": {
    "kind": "dev",
    "methods": {},
    "version": 1
  },
  "userdoc": {
    "kind": "user",
    "methods": {},
    "version": 1
  }
}